:020000040800F2
:1000000000000320390B00087D0B00087D0B000861
:100010007D0B00087D0B00087D0B00080000000030
:100020000000000000000000000000007D0B000840
:100030007D0B0008000000007D0B00087D0B000810
:100040007D0B00087D0B00087D0B00087D0B000870
:100050007D0B00087D0B00087D0B00087D0B000860
:100060007D0B00087D0B00087D0B00087D0B000850
:100070007D0B00087D0B00087D0B00087D0B000840
:100080007D0B00087D0B00087D0B00087D0B000830
:100090007D0B00087D0B00087D0B00087D0B000820
:1000A0007D0B00087D0B00087D0B00087D0B000810
:1000B0007D0B00087D0B00087D0B00087D0B000800
:1000C0007D0B00087D0B00087D0B00087D0B0008F0
:1000D0007D0B00087D0B00087D0B00087D0B0008E0
:1000E0007D0B00087D0B00087D0B00087D0B0008D0
:1000F0007D0B00087D0B00087D0B00087D0B0008C0
:100100007D0B00087D0B00087D0B00087D0B0008AF
:100110007D0B00087D0B00087D0B00087D0B00089F
:100120007D0B00087D0B00087D0B00087D0B00088F
:100130007D0B00087D0B00087D0B00087D0B00087F
:100140007D0B00087D0B00087D0B00087D0B00086F
:100150007D0B00087D0B00087D0B00087D0B00085F
:100160007D0B00087D0B00087D0B00087D0B00084F
:100170007D0B00087D0B00087D0B00087D0B00083F
:100180007D0B00087D0B00087D0B00087D0B00082F
:100190007D0B00087D0B00087D0B00087D0B00081F
:0C01A0007D0B00087D0B00087D0B0008A3
:1001AC0080B582B000AF7860084611461A46034607
:1001BC00FB700B46BB7013467B70BA78FB78194604
:1001CC00786800F01DF87A78FB781946786800F0AA
:1001DC00EFF83A7CFB781946786800F0C1F93A7D63
:1001EC00FB781946786800F093FA3A7EFB7819464A
:1001FC00786800F065FB00BF0837BD4680BD000085
:10020C0080B485B000AF78600B46FB701346BB70B2
:10021C007B68FB60FB780F2B00F2C48001A252F8C4
:10022C0023F000BF71020008850200089902000843
:10023C00AD020008C1020008D5020008E90200085E
:10024C00FD0200081103000825030008390300080B
:10025C004D030008610300087503000889030008BA
:10026C009D030008BB7803F00303D9B2FA68136846
:10027C0061F30103136096E0BB7803F00303D9B27A
:10028C00FA68136861F3830313608CE0BB7803F0A6
:10029C000303D9B2FA68136861F30513136082E0A3
:1002AC00BB7803F00303D9B2FA68136861F38713C0
:1002BC00136078E0BB7803F00303D9B2FA681368D3
:1002CC0061F3092313606EE0BB7803F00303D9B22A
:1002DC00FA68136861F38B23136064E0BB7803F056
:1002EC000303D9B2FA68136861F30D3313605AE053
:1002FC00BB7803F00303D9B2FA68136861F38F3348
:10030C00136050E0BB7803F00303D9B2FA681368AA
:10031C0061F31143136046E0BB7803F00303D9B2D9
:10032C00FA68136861F3934313603CE0BB7803F005
:10033C000303D9B2FA68136861F31553136032E002
:10034C00BB7803F00303D9B2FA68136861F39753CF
:10035C00136028E0BB7803F00303D9B2FA68136882
:10036C0061F3196313601EE0BB7803F00303D9B289
:10037C00FA68136861F39B63136014E0BB7803F0B5
:10038C000303D9B2FA68136861F31D7313600AE0B2
:10039C00BB7803F00303D9B2FA68136861F39F7357
:1003AC00136000E000BF00BF1437BD4680BC70472F
:1003BC0080B485B000AF78600B46FB701346BB7001
:1003CC007B68FB60FB780F2B00F2C48001A252F813
:1003DC0023F000BF2104000835040008490400087C
:1003EC005D040008710400088504000899040008E5
:1003FC00AD040008C1040008D5040008E904000895
:10040C00FD04000811050008250500083905000841
:10041C004D050008BB7803F00103D9B2FA685368A4
:10042C0061F30003536096E0BB7803F00103D9B28B
:10043C00FA68536861F3410353608CE0BB7803F0B6
:10044C000103D9B2FA68536861F38203536082E006
:10045C00BB7803F00103D9B2FA68536861F3C303A4
:10046C00536078E0BB7803F00103D9B2FA685368A3
:10047C0061F3041353606EE0BB7803F00103D9B24F
:10048C00FA68536861F34513536064E0BB7803F07A
:10049C000103D9B2FA68536861F3861353605AE0CA
:1004AC00BB7803F00103D9B2FA68536861F3C71340
:1004BC00536050E0BB7803F00103D9B2FA6853687B
:1004CC0061F30823536046E0BB7803F00103D9B213
:1004DC00FA68536861F3492353603CE0BB7803F03E
:1004EC000103D9B2FA68536861F38A23536032E08E
:1004FC00BB7803F00103D9B2FA68536861F3CB23DC
:10050C00536028E0BB7803F00103D9B2FA68536852
:10051C0061F30C3353601EE0BB7803F00103D9B2D6
:10052C00FA68536861F34D33536014E0BB7803F001
:10053C000103D9B2FA68536861F38E3353600AE051
:10054C00BB7803F00103D9B2FA68536861F3CF3377
:10055C00536000E000BF00BF1437BD4680BC70473D
:10056C0080B485B000AF78600B46FB701346BB704F
:10057C007B68FB60FB780F2B00F2C48001A252F861
:10058C0023F000BFD1050008E5050008F9050008B7
:10059C000D0600082106000835060008490600086B
:1005AC005D0600087106000885060008990600081B
:1005BC00AD060008C1060008D5060008E9060008CB
:1005CC00FD060008BB7803F00303D9B2FA68936800
:1005DC0061F30103936096E0BB7803F00303D9B297
:1005EC00FA68936861F3830393608CE0BB7803F043
:1005FC000303D9B2FA68936861F30513936082E040
:10060C00BB7803F00303D9B2FA68936861F38713DC
:10061C00936078E0BB7803F00303D9B2FA6893686F
:10062C0061F3092393606EE0BB7803F00303D9B246
:10063C00FA68936861F38B23936064E0BB7803F0F2
:10064C000303D9B2FA68936861F30D3393605AE0EF
:10065C00BB7803F00303D9B2FA68936861F38F3364
:10066C00936050E0BB7803F00303D9B2FA68936847
:10067C0061F31143936046E0BB7803F00303D9B2F6
:10068C00FA68936861F3934393603CE0BB7803F0A2
:10069C000303D9B2FA68936861F31553936032E09F
:1006AC00BB7803F00303D9B2FA68936861F39753EC
:1006BC00936028E0BB7803F00303D9B2FA6893681F
:1006CC0061F3196393601EE0BB7803F00303D9B2A6
:1006DC00FA68936861F39B63936014E0BB7803F052
:1006EC000303D9B2FA68936861F31D7393600AE04F
:1006FC00BB7803F00303D9B2FA68936861F39F7374
:10070C00936000E000BF00BF1437BD4680BC70474B
:10071C0080B485B000AF78600B46FB701346BB709D
:10072C007B68FB60FB780F2B00F2C48001A252F8AF
:10073C0023F000BF8107000895070008A9070008EF
:10074C00BD070008D1070008E5070008F9070008F5
:10075C000D080008210800083508000849080008A1
:10076C005D08000871080008850800089908000851
:10077C00AD080008BB7803F00303D9B2FA68D3685C
:10078C0061F30103D36096E0BB7803F00303D9B2A5
:10079C00FA68D36861F38303D3608CE0BB7803F011
:1007AC000303D9B2FA68D36861F30513D36082E00E
:1007BC00BB7803F00303D9B2FA68D36861F38713EB
:1007CC00D36078E0BB7803F00303D9B2FA68D3683E
:1007DC0061F30923D3606EE0BB7803F00303D9B255
:1007EC00FA68D36861F38B23D36064E0BB7803F0C1
:1007FC000303D9B2FA68D36861F30D33D3605AE0BE
:10080C00BB7803F00303D9B2FA68D36861F38F3372
:10081C00D36050E0BB7803F00303D9B2FA68D36815
:10082C0061F31143D36046E0BB7803F00303D9B204
:10083C00FA68D36861F39343D3603CE0BB7803F070
:10084C000303D9B2FA68D36861F31553D36032E06D
:10085C00BB7803F00303D9B2FA68D36861F39753FA
:10086C00D36028E0BB7803F00303D9B2FA68D368ED
:10087C0061F31963D3601EE0BB7803F00303D9B2B4
:10088C00FA68D36861F39B63D36014E0BB7803F020
:10089C000303D9B2FA68D36861F31D73D3600AE01D
:1008AC00BB7803F00303D9B2FA68D36861F39F7382
:1008BC00D36000E000BF00BF1437BD4680BC70475A
:1008CC0080B485B000AF78600B46FB701346BB70EC
:1008DC007B68FB60FB780F2B00F2C48001A252F8FE
:1008EC0023F000BF31090008450900085909000828
:1008FC006D0900088109000895090008A90900087C
:10090C00BD090008D1090008E5090008F90900082B
:10091C000D0A0008210A0008350A0008490A0008D7
:10092C005D0A0008BB7803F00F03D9B2FA68136AAA
:10093C0061F30303136296E0BB7803F00F03D9B2A3
:10094C00FA68136A61F3071313628CE0BB7803F047
:10095C000F03D9B2FA68136A61F30B23136282E0B6
:10096C00BB7803F00F03D9B2FA68136A61F30F3343
:10097C00136278E0BB7803F00F03D9B2FA68136AFC
:10098C0061F3134313626EE0BB7803F00F03D9B22B
:10099C00FA68136A61F31753136264E0BB7803F0CF
:1009AC000F03D9B2FA68136A61F31B6313625AE03E
:1009BC00BB7803F00F03D9B2FA68136A61F31F73A3
:1009CC00136250E0BB7803F00F03D9B2FA68536A94
:1009DC0061F30303536246E0BB7803F00F03D9B213
:1009EC00FA68536A61F3071353623CE0BB7803F077
:1009FC000F03D9B2FA68536A61F30B23536232E0E6
:100A0C00BB7803F00F03D9B2FA68536A61F30F3362
:100A1C00536228E0BB7803F00F03D9B2FA68536A2B
:100A2C0061F3134353621EE0BB7803F00F03D9B29A
:100A3C00FA68536A61F31753536214E0BB7803F0FE
:100A4C000F03D9B2FA68536A61F31B6353620AE06D
:100A5C00BB7803F00F03D9B2FA68536A61F31F73C2
:100A6C00536200E000BF00BF1437BD4680BC704726
:100A7C0080B588B004AF284B1B6B274A43F080032A
:100A8C001363264B1B68254A43F0A8731360234B52
:100A9C005B69224A43F4E053536100230293002321
:100AAC000193002300930023012201211C48FFF72E
:100ABC0077FB0023FB6004E000BF00BFFB68013341
:100ACC00FB60FB68174A9342F6DB0023FB72134B67
:100ADC005B69124A23F4E0535361104B5A69FB7A59
:100AEC009B0203F4E0530D4913434B6100237B60DD
:100AFC0004E000BF00BF7B6801337B607B680A4A5F
:100B0C009342F6DBFB7A072B02D10023FB72DEE764
:100B1C00FB7A0133FB72DAE700380240001C02401A
:100B2C000000024080969800C0CF6A00002103E0CC
:100B3C000A4B5B584350043109480A4B42189A42FD
:100B4C00F6D3094A02E0002342F8043B074B9A42D1
:100B5C00F9D300F00FF8FFF78BFF7047040D000876
:100B6C0000000020000000200000002000000020F9
:100B7C00FEE7000080B500AF124B1B68114A43F032
:100B8C00010313600F4B00229A600E4B1B680D4A39
:100B9C0023F0847323F4803313600A4B0A4A5A609F
:100BAC00084B1B68074A23F480231360054B002273
:100BBC00DA6000F00DF8054B4FF000629A6000BF50
:100BCC0080BD00BF003802401030002400ED00E072
:100BDC0080B483B000AF00237B6000233B60424BAA
:100BEC001B68414A43F4803313603F4B1B6803F48A
:100BFC0000333B607B6801337B603B68002B03D187
:100C0C007B68B3F5A04FF0D1374B1B6803F400336E
:100C1C00002B02D001233B6001E000233B603B68CA
:100C2C00012B5CD1304B1B6C2F4A43F08053136467
:100C3C002E4B1B682D4A43F4404313602A4B2A4A1F
:100C4C009B689360284B9B68274A43F4004393604E
:100C5C00254B9B68244A43F4A0539360224B244AAF
:100C6C005A60214B1B68204A43F08073136000BF0D
:100C7C001D4B1B6803F00073002BF9D01B4B1B683A
:100C8C001A4A43F48033136000BF184B5B6803F4BB
:100C9C008033002BF9D0154B1B68144A43F40033F6
:100CAC00136000BF114B5B6803F40033002BF9D0C9
:100CBC00104B40F205721A600B4B9B680A4A23F0EA
:100CCC0003039360084B9B68074A43F0020393604D
:100CDC0000BF054B9B6803F00C03082BF9D100BF38
:100CEC000C37BD4680BC7047003802400070004095
:080CFC00085A4007003C0240C9
:0400000508000B39AB
:00000001FF
