:020000040800F2
:10000000000003204D020008910200089102000840
:10001000910200089102000891020008000000000F
:100020000000000000000000000000009102000835
:1000300091020008000000009102000891020008EF
:100040009102000891020008910200089102000844
:100050009102000891020008910200089102000834
:100060009102000891020008910200089102000824
:100070009102000891020008910200089102000814
:100080009102000891020008910200089102000804
:1000900091020008910200089102000891020008F4
:1000A00091020008910200089102000891020008E4
:1000B00091020008910200089102000891020008D4
:1000C00091020008910200089102000891020008C4
:1000D00091020008910200089102000891020008B4
:1000E00091020008910200089102000891020008A4
:1000F0009102000891020008910200089102000894
:100100009102000891020008910200089102000883
:100110009102000891020008910200089102000873
:100120009102000891020008910200089102000863
:100130009102000891020008910200089102000853
:100140009102000891020008910200089102000843
:100150009102000891020008910200089102000833
:100160009102000891020008910200089102000823
:100170009102000891020008910200089102000813
:100180009102000891020008910200089102000803
:1001900091020008910200089102000891020008F3
:0C01A00091020008910200089102000882
:1001AC0080B485B000AF224B1B6B214A43F0800317
:1001BC001363204B1B681F4A43F0A87313601D4B3D
:1001CC005B691C4A43F4E05353610023FB6004E079
:1001DC0000BF00BFFB680133FB60FB68164A93420B
:1001EC00F6DB0023FB72134B5B69124A23F4E053DA
:1001FC005361104B5A69FB7A9B0203F4E0530D498F
:10020C0013434B6100237B6004E000BF00BF7B689D
:10021C0001337B607B68094A9342F6DBFB7A072B40
:10022C0002D10023FB72DEE7FB7A0133FB72DAE7C3
:10023C0000380240001C024080969800C0CF6A0033
:10024C00002103E00A4B5B584350043109480A4B28
:10025C0042189A42F6D3094A02E0002342F8043BC2
:10026C00074B9A42F9D300F00FF8FFF799FF70474C
:10027C0018040008000000200000002000000020EE
:10028C0000000020FEE7000080B500AF124B1B6899
:10029C00114A43F0010313600F4B00229A600E4B7E
:1002AC001B680D4A23F0847323F4803313600A4BCC
:1002BC000A4A5A60084B1B68074A23F480231360D0
:1002CC00054B0022DA6000F00DF8054B4FF0006290
:1002DC009A6000BF80BD00BF00380240103000247F
:1002EC0000ED00E080B483B000AF00237B600023FE
:1002FC003B60424B1B68414A43F4803313603F4BD5
:10030C001B6803F400333B607B6801337B603B6804
:10031C00002B03D17B68B3F5A04FF0D1374B1B6892
:10032C0003F40033002B02D001233B6001E00023D7
:10033C003B603B68012B5CD1304B1B6C2F4A43F06C
:10034C00805313642E4B1B682D4A43F440431360B7
:10035C002A4B2A4A9B689360284B9B68274A43F494
:10036C0000439360254B9B68244A43F4A05393604D
:10037C00224B244A5A60214B1B68204A43F080735D
:10038C00136000BF1D4B1B6803F00073002BF9D0EA
:10039C001B4B1B681A4A43F48033136000BF184B85
:1003AC005B6803F48033002BF9D0154B1B68144A9F
:1003BC0043F40033136000BF114B5B6803F400334C
:1003CC00002BF9D0104B40F205721A600B4B9B6856
:1003DC000A4A23F003039360084B9B68074A43F0D7
:1003EC000203936000BF054B9B6803F00C03082BC2
:1003FC00F9D100BF0C37BD4680BC704700380240B5
:0C040C0000700040085A4007003C02400D
:040000050800024DA0
:00000001FF
